{
    "contractName": "HR_Chain",
    "abi": [
        {
            "inputs": [],
            "stateMutability": "nonpayable",
            "type": "constructor"
        },
        {
            "inputs": [],
            "name": "ECDSAInvalidSignature",
            "type": "error"
        },
        {
            "inputs": [
                {
                    "internalType": "uint256",
                    "name": "length",
                    "type": "uint256"
                }
            ],
            "name": "ECDSAInvalidSignatureLength",
            "type": "error"
        },
        {
            "inputs": [
                {
                    "internalType": "bytes32",
                    "name": "s",
                    "type": "bytes32"
                }
            ],
            "name": "ECDSAInvalidSignatureS",
            "type": "error"
        },
        {
            "anonymous": false,
            "inputs": [],
            "name": "certifiedListUpdated",
            "type": "event"
        },
        {
            "anonymous": false,
            "inputs": [
                {
                    "indexed": false,
                    "internalType": "address",
                    "name": "from",
                    "type": "address"
                },
                {
                    "indexed": false,
                    "internalType": "address",
                    "name": "to",
                    "type": "address"
                },
                {
                    "indexed": false,
                    "internalType": "uint256",
                    "name": "amount",
                    "type": "uint256"
                }
            ],
            "name": "paymentSettled",
            "type": "event"
        },
        {
            "inputs": [],
            "name": "Certified_List",
            "outputs": [
                {
                    "internalType": "address[]",
                    "name": "",
                    "type": "address[]"
                }
            ],
            "stateMutability": "view",
            "type": "function"
        },
        {
            "inputs": [],
            "name": "Client_List",
            "outputs": [
                {
                    "internalType": "address[]",
                    "name": "",
                    "type": "address[]"
                }
            ],
            "stateMutability": "view",
            "type": "function"
        },
        {
            "inputs": [],
            "name": "accRequest",
            "outputs": [],
            "stateMutability": "nonpayable",
            "type": "function"
        },
        {
            "inputs": [
                {
                    "internalType": "address",
                    "name": "_address",
                    "type": "address"
                }
            ],
            "name": "add_Certified",
            "outputs": [],
            "stateMutability": "nonpayable",
            "type": "function"
        },
        {
            "inputs": [
                {
                    "internalType": "string[]",
                    "name": "_info",
                    "type": "string[]"
                }
            ],
            "name": "add_info",
            "outputs": [],
            "stateMutability": "nonpayable",
            "type": "function"
        },
        {
            "inputs": [],
            "name": "admin",
            "outputs": [
                {
                    "internalType": "address",
                    "name": "",
                    "type": "address"
                }
            ],
            "stateMutability": "view",
            "type": "function"
        },
        {
            "inputs": [
                {
                    "internalType": "address",
                    "name": "",
                    "type": "address"
                }
            ],
            "name": "client",
            "outputs": [
                {
                    "internalType": "string",
                    "name": "name",
                    "type": "string"
                },
                {
                    "internalType": "uint8",
                    "name": "userID",
                    "type": "uint8"
                },
                {
                    "internalType": "uint8",
                    "name": "docCount",
                    "type": "uint8"
                },
                {
                    "internalType": "uint8",
                    "name": "stageAcc",
                    "type": "uint8"
                }
            ],
            "stateMutability": "view",
            "type": "function"
        },
        {
            "inputs": [
                {
                    "internalType": "address",
                    "name": "_address",
                    "type": "address"
                },
                {
                    "internalType": "string",
                    "name": "message",
                    "type": "string"
                }
            ],
            "name": "generate_Doc",
            "outputs": [
                {
                    "internalType": "string",
                    "name": "",
                    "type": "string"
                }
            ],
            "stateMutability": "nonpayable",
            "type": "function"
        },
        {
            "inputs": [
                {
                    "internalType": "address payable",
                    "name": "toAddress",
                    "type": "address"
                }
            ],
            "name": "make_payment",
            "outputs": [],
            "stateMutability": "payable",
            "type": "function"
        },
        {
            "inputs": [
                {
                    "internalType": "address",
                    "name": "_address",
                    "type": "address"
                },
                {
                    "internalType": "bytes32",
                    "name": "_hash",
                    "type": "bytes32"
                },
                {
                    "internalType": "bytes",
                    "name": "_signature",
                    "type": "bytes"
                }
            ],
            "name": "record_signs",
            "outputs": [],
            "stateMutability": "nonpayable",
            "type": "function"
        },
        {
            "inputs": [
                {
                    "internalType": "address",
                    "name": "_addressClient",
                    "type": "address"
                }
            ],
            "name": "register_client",
            "outputs": [],
            "stateMutability": "nonpayable",
            "type": "function"
        },
        {
            "inputs": [
                {
                    "internalType": "address",
                    "name": "_address",
                    "type": "address"
                },
                {
                    "internalType": "uint8",
                    "name": "_docNum",
                    "type": "uint8"
                }
            ],
            "name": "retrieve_signs",
            "outputs": [
                {
                    "internalType": "string",
                    "name": "",
                    "type": "string"
                },
                {
                    "internalType": "uint256",
                    "name": "",
                    "type": "uint256"
                },
                {
                    "internalType": "bytes32",
                    "name": "",
                    "type": "bytes32"
                },
                {
                    "internalType": "bytes",
                    "name": "",
                    "type": "bytes"
                }
            ],
            "stateMutability": "view",
            "type": "function"
        },
        {
            "inputs": [
                {
                    "internalType": "address",
                    "name": "_address",
                    "type": "address"
                }
            ],
            "name": "return_info",
            "outputs": [
                {
                    "internalType": "string[]",
                    "name": "",
                    "type": "string[]"
                }
            ],
            "stateMutability": "view",
            "type": "function"
        },
        {
            "inputs": [
                {
                    "internalType": "string",
                    "name": "_name",
                    "type": "string"
                }
            ],
            "name": "set_username",
            "outputs": [],
            "stateMutability": "nonpayable",
            "type": "function"
        },
        {
            "inputs": [],
            "name": "startTime",
            "outputs": [
                {
                    "internalType": "uint256",
                    "name": "",
                    "type": "uint256"
                }
            ],
            "stateMutability": "view",
            "type": "function"
        },
        {
            "inputs": [],
            "name": "timeNow",
            "outputs": [
                {
                    "internalType": "uint256",
                    "name": "",
                    "type": "uint256"
                }
            ],
            "stateMutability": "view",
            "type": "function"
        },
        {
            "inputs": [
                {
                    "internalType": "uint256",
                    "name": "timestamp",
                    "type": "uint256"
                }
            ],
            "name": "timestampToDateTime",
            "outputs": [
                {
                    "internalType": "uint256",
                    "name": "year",
                    "type": "uint256"
                },
                {
                    "internalType": "uint256",
                    "name": "month",
                    "type": "uint256"
                },
                {
                    "internalType": "uint256",
                    "name": "day",
                    "type": "uint256"
                },
                {
                    "internalType": "uint256",
                    "name": "hour",
                    "type": "uint256"
                },
                {
                    "internalType": "uint256",
                    "name": "minute",
                    "type": "uint256"
                },
                {
                    "internalType": "uint256",
                    "name": "second",
                    "type": "uint256"
                }
            ],
            "stateMutability": "pure",
            "type": "function"
        },
        {
            "inputs": [
                {
                    "internalType": "address",
                    "name": "_address",
                    "type": "address"
                }
            ],
            "name": "verifyAcc",
            "outputs": [],
            "stateMutability": "nonpayable",
            "type": "function"
        },
        {
            "inputs": [
                {
                    "internalType": "bytes32",
                    "name": "hash",
                    "type": "bytes32"
                },
                {
                    "internalType": "bytes",
                    "name": "signature",
                    "type": "bytes"
                }
            ],
            "name": "verifyDoc",
            "outputs": [
                {
                    "internalType": "bool",
                    "name": "",
                    "type": "bool"
                },
                {
                    "internalType": "address",
                    "name": "",
                    "type": "address"
                }
            ],
            "stateMutability": "view",
            "type": "function"
        }
    ],
    "bytecode": "60c060405260076080908152660436c69656e74360cc1b60a05260089062000028908262000138565b506009805460ff191690553480156200003f575f80fd5b5060028054336001600160a01b03199182168117909255426005555f80546001810182559080527f290decd9548b62a8d60345a988386fc84ba6bc95484008f6362f93160ef3e563018054909116909117905562000200565b634e487b7160e01b5f52604160045260245ffd5b600181811c90821680620000c157607f821691505b602082108103620000e057634e487b7160e01b5f52602260045260245ffd5b50919050565b601f82111562000133575f81815260208120601f850160051c810160208610156200010e5750805b601f850160051c820191505b818110156200012f578281556001016200011a565b5050505b505050565b81516001600160401b0381111562000154576200015462000098565b6200016c81620001658454620000ac565b84620000e6565b602080601f831160018114620001a2575f84156200018a5750858301515b5f19600386901b1c1916600185901b1785556200012f565b5f85815260208120601f198616915b82811015620001d257888601518255948401946001909101908401620001b1565b5085821015620001f057878501515f19600388901b60f8161c191681555b5050505050600190811b01905550565b6124e9806200020e5f395ff3fe608060405260043610610110575f3560e01c806380d051421161009d578063e03f5b1611610062578063e03f5b16146102e4578063e1eed17814610313578063ea1c16901461033f578063ea2d486f1461038b578063f851a440146103aa575f80fd5b806380d051421461026d578063844c52d51461028c578063b1e5b589146102ab578063c493f2e2146102bf578063d95660be146102d2575f80fd5b8063427d2e42116100e3578063427d2e42146101bf578063489e0cf1146101de5780634b55f187146101fd578063525cf3a01461022957806378e979251461024a575f80fd5b806309c1fffc146101145780630b4ace51146101355780630c332119146101495780633099a26914610181575b5f80fd5b34801561011f575f80fd5b5061013361012e366004611bbf565b6103e1565b005b348015610140575f80fd5b50610133610441565b348015610154575f80fd5b50610168610163366004611c0d565b61059d565b6040516101789493929190611c7c565b60405180910390f35b34801561018c575f80fd5b506101a061019b366004611cb1565b610653565b6040805192151583526001600160a01b03909116602083015201610178565b3480156101ca575f80fd5b506101336101d9366004611cf5565b6106cb565b3480156101e9575f80fd5b506101336101f8366004611c0d565b61072b565b348015610208575f80fd5b5061021c610217366004611c0d565b61087f565b6040516101789190611db2565b348015610234575f80fd5b5061023d61096c565b6040516101789190611e12565b348015610255575f80fd5b5061025f60055481565b604051908152602001610178565b348015610278575f80fd5b50610133610287366004611e5e565b6109f7565b348015610297575f80fd5b506101336102a6366004611c0d565b610d0f565b3480156102b6575f80fd5b5061023d610e69565b6101336102cd366004611c0d565b610ec6565b3480156102dd575f80fd5b504261025f565b3480156102ef575f80fd5b506103036102fe366004611eb3565b610fe5565b6040516101789493929190611eef565b34801561031e575f80fd5b5061033261032d366004611f2a565b611155565b6040516101789190611f61565b34801561034a575f80fd5b5061035e610359366004611f73565b6113a4565b604080519687526020870195909552938501929092526060840152608083015260a082015260c001610178565b348015610396575f80fd5b506101336103a5366004611c0d565b6113c7565b3480156103b5575f80fd5b506002546103c9906001600160a01b031681565b6040516001600160a01b039091168152602001610178565b6103ea336114a4565b600954610100900460ff1661041a5760405162461bcd60e51b815260040161041190611f8a565b60405180910390fd5b6009805461ff0019169055335f90815260036020526040902061043d8282612047565b5050565b6002546001600160a01b031633036104a55760405162461bcd60e51b815260206004820152602160248201527f43616e6e6f7420726567697374657220616e2061646d696e206163636f756e746044820152601760f91b6064820152608401610411565b6104ae336114a4565b600954610100900460ff16156105065760405162461bcd60e51b815260206004820152601a60248201527f4163636f756e7420616c726561647920726567697374657265640000000000006044820152606401610411565b61050e61150c565b335f908152600360205260409020610527600882612103565b50600954335f81815260036020819052604082206001808201805460ff191660ff9097169690961790955501805461ffff19169055825480840184559290527fb10e2d527612073b26eecdfd717e6a320cf44b4afac2b0732d9fcbe2b7fa0cf690910180546001600160a01b0319169091179055565b60036020525f90815260409020805481906105b790611fc1565b80601f01602080910402602001604051908101604052809291908181526020018280546105e390611fc1565b801561062e5780601f106106055761010080835404028352916020019161062e565b820191905f5260205f20905b81548152906001019060200180831161061157829003601f168201915b505050506001830154600390930154919260ff90811692818116925061010090041684565b5f80806106608585611573565b90505f5b5f548110156106bb575f818154811061067f5761067f6121ec565b5f918252602090912001546001600160a01b03908116908316036106a957506001925090506106c4565b806106b381612214565b915050610664565b505f8092509250505b9250929050565b6106d4336114a4565b600954610100900460ff166106fb5760405162461bcd60e51b815260040161041190611f8a565b6009805461ff0019169055335f908152600360209081526040909120825161043d92600290920191840190611a58565b6002546001600160a01b031633146107555760405162461bcd60e51b81526004016104119061222c565b6002546001600160a01b039081169082160361076f575f80fd5b610778816114a4565b600954610100900460ff16156107d05760405162461bcd60e51b815260206004820152601a60248201527f4163636f756e7420616c726561647920726567697374657265640000000000006044820152606401610411565b6107d861150c565b6001600160a01b0381165f9081526003602052604090206107fa600882612103565b506009546001600160a01b03919091165f81815260036020819052604082206001808201805460ff191660ff9097169690961790955501805461ffff1916610100179055825480840184559290527fb10e2d527612073b26eecdfd717e6a320cf44b4afac2b0732d9fcbe2b7fa0cf690910180546001600160a01b0319169091179055565b6001600160a01b0381165f908152600360209081526040808320600201805482518185028101850190935280835260609492939192909184015b82821015610961578382905f5260205f200180546108d690611fc1565b80601f016020809104026020016040519081016040528092919081815260200182805461090290611fc1565b801561094d5780601f106109245761010080835404028352916020019161094d565b820191905f5260205f20905b81548152906001019060200180831161093057829003601f168201915b5050505050815260200190600101906108b9565b505050509050919050565b6002546060906001600160a01b031633146109995760405162461bcd60e51b81526004016104119061222c565b60018054806020026020016040519081016040528092919081815260200182805480156109ed57602002820191905f5260205f20905b81546001600160a01b031681526001909101906020018083116109cf575b5050505050905090565b5f5b60015460ff82161015610a565760018160ff1681548110610a1c57610a1c6121ec565b5f918252602090912001546001600160a01b03163303610a44576006805460ff191660011790555b80610a4e81612263565b9150506109f9565b506002546001600160a01b0316331480610a72575060065460ff165b610aae5760405162461bcd60e51b815260206004820152600d60248201526c1058d8d95cdcc811195b9a5959609a1b6044820152606401610411565b6001600160a01b0383165f9081526003602081905260409091200154839060ff61010090910416600114610b205760405162461bcd60e51b815260206004820152601960248201527820b1b1b7bab73a103737ba103cb2ba103b32b934b334b2b21760391b6044820152606401610411565b6001600160a01b0384165f9081526004602090815260408083206003808452828520015460ff16845290915290206001015415610b9f5760405162461bcd60e51b815260206004820152601a60248201527f5369676e617475726520616c7265616479207265636f726465640000000000006044820152606401610411565b5f604051806080016040528060078054610bb890611fc1565b80601f0160208091040260200160405190810160405280929190818152602001828054610be490611fc1565b8015610c2f5780601f10610c0657610100808354040283529160200191610c2f565b820191905f5260205f20905b815481529060010190602001808311610c1257829003601f168201915b505050918352505042602080830191909152604080830188905260609092018690526001600160a01b0388165f908152600482528281206003808452848320015460ff16825290915220815191925082918190610c8c9082612047565b50602082015160018201556040820151600282015560608201516003820190610cb59082612047565b5050506001600160a01b0385165f908152600360208190526040822001805460ff1691610ce183612263565b825460ff9182166101009390930a928302919092021990911617905550506006805460ff1916905550505050565b6002546001600160a01b03163314610d395760405162461bcd60e51b81526004016104119061222c565b5f5b5f5460ff82161015610d9a575f8160ff1681548110610d5c57610d5c6121ec565b5f918252602090912001546001600160a01b0390811690831603610d88576006805460ff191660011790555b80610d9281612263565b915050610d3b565b5060065460ff1615610dee5760405162461bcd60e51b815260206004820152601a60248201527f4164647265737320616c7265616479206365727469666965642e0000000000006044820152606401610411565b5f80546001810182558180527f290decd9548b62a8d60345a988386fc84ba6bc95484008f6362f93160ef3e5630180546001600160a01b0319166001600160a01b0384161790556006805460ff191690556040517f5a3251bdb9d14ec50d5ca3b444a0cfa729fbe3dabc25ebd2d6ab7d485bb4e3b69190a150565b60605f8054806020026020016040519081016040528092919081815260200182805480156109ed57602002820191905f5260205f209081546001600160a01b031681526001909101906020018083116109cf575050505050905090565b610ecf336114a4565b600954610100900460ff16610ef65760405162461bcd60e51b815260040161041190611f8a565b6009805461ff0019169055335f8181526003602081905260409091200154610100900460ff16600114610f675760405162461bcd60e51b815260206004820152601960248201527820b1b1b7bab73a103737ba103cb2ba103b32b934b334b2b21760391b6044820152606401610411565b6040516001600160a01b038316903480156108fc02915f818181858888f19350505050158015610f99573d5f803e3d5ffd5b50604080513381526001600160a01b0384166020820152348183015290517f5bb782a99e91566a55e8b20740ddc131ab33c3dd3a630627d383be6aa3325f549181900360600190a15050565b60605f808284610ff481612281565b6001600160a01b0388165f90815260046020908152604080832060ff851684529091529020600181015460028201548254939950919350916003840190849061103c90611fc1565b80601f016020809104026020016040519081016040528092919081815260200182805461106890611fc1565b80156110b35780601f1061108a576101008083540402835291602001916110b3565b820191905f5260205f20905b81548152906001019060200180831161109657829003601f168201915b505050505093508080546110c690611fc1565b80601f01602080910402602001604051908101604052809291908181526020018280546110f290611fc1565b801561113d5780601f106111145761010080835404028352916020019161113d565b820191905f5260205f20905b81548152906001019060200180831161112057829003601f168201915b50505050509050935093509350935092959194509250565b60605f5b60015460ff821610156111b65760018160ff168154811061117c5761117c6121ec565b5f918252602090912001546001600160a01b031633036111a4576006805460ff191660011790555b806111ae81612263565b915050611159565b506002546001600160a01b03163314806111d2575060065460ff165b61120e5760405162461bcd60e51b815260206004820152600d60248201526c1058d8d95cdcc811195b9a5959609a1b6044820152606401610411565b5f5b60015460ff821610156113575760018160ff1681548110611233576112336121ec565b5f918252602090912001546001600160a01b0390811690851603611345576001600160a01b0384165f90815260036020526040902060018101546112799060ff1661159d565b6112824261159d565b8560405160200161129694939291906122b7565b604051602081830303815290604052600790816112b39190612047565b50600780546112c190611fc1565b80601f01602080910402602001604051908101604052809291908181526020018280546112ed90611fc1565b80156113385780601f1061130f57610100808354040283529160200191611338565b820191905f5260205f20905b81548152906001019060200180831161131b57829003601f168201915b5050505050915050611394565b8061134f81612263565b915050611210565b5060405162461bcd60e51b815260206004820152601160248201527021b634b2b73a103737ba103337bab7321760791b6044820152606401610411565b6006805460ff1916905592915050565b5f805f805f806113b3876116ae565b949c939b5091995097509550909350915050565b6002546001600160a01b031633146113f15760405162461bcd60e51b81526004016104119061222c565b6113fa816114a4565b600954610100900460ff166114455760405162461bcd60e51b815260206004820152601160248201527021a634b2b73a103737ba103337bab7321760791b6044820152606401610411565b6009805461ff00191690556001600160a01b0381165f9081526003602081905260409091200154610100900460ff166114a1576001600160a01b0381165f90815260036020819052604090912001805461ff0019166101001790555b50565b5f5b60015460ff8216101561043d5760018160ff16815481106114c9576114c96121ec565b5f918252602090912001546001600160a01b03908116908316036114fa576009805461ff0019166101001790555050565b8061150481612263565b9150506114a6565b6009805460ff16905f61151e83612263565b82546101009290920a60ff81810219909316918316021790915560095461154692501661159d565b604051602001611556919061237e565b604051602081830303815290604052600890816114a19190612047565b5f805f806115818686611720565b9250925092506115918282611769565b50909150505b92915050565b6060815f036115c35750506040805180820190915260018152600360fc1b602082015290565b815f5b81156115ec57806115d681612214565b91506115e59050600a836123bf565b91506115c6565b5f8167ffffffffffffffff81111561160657611606611b0e565b6040519080825280601f01601f191660200182016040528015611630576020820181803683370190505b509050815b85156116a5576116466001826123d2565b90505f611654600a886123e5565b61165f9060306123f8565b90505f8160f81b90508084848151811061167b5761167b6121ec565b60200101906001600160f81b03191690815f1a90535061169c600a896123bf565b97505050611635565b50949350505050565b5f80808080806116c96116c462015180896123bf565b611821565b919750955093505f6116de62015180896123e5565b90506116ec610e10826123bf565b93506116fa610e10826123e5565b9050611707603c826123bf565b9250611714603c826123e5565b91505091939550919395565b5f805f8351604103611757576020840151604085015160608601515f1a61174988828585611990565b955095509550505050611762565b505081515f91506002905b9250925092565b5f82600381111561177c5761177c6121d8565b03611785575050565b6001826003811115611799576117996121d8565b036117b75760405163f645eedf60e01b815260040160405180910390fd5b60028260038111156117cb576117cb6121d8565b036117ec5760405163fce698f760e01b815260048101829052602401610411565b6003826003811115611800576118006121d8565b0361043d576040516335e2f38360e21b815260048101829052602401610411565b5f8080838162253d8c6118378362010bd961240b565b611841919061240b565b90505f62023ab1611853836004612432565b61185d9190612461565b9050600461186e8262023ab1612432565b61187990600361240b565b6118839190612461565b61188d908361248d565b91505f62164b0961189f84600161240b565b6118ab90610fa0612432565b6118b59190612461565b905060046118c5826105b5612432565b6118cf9190612461565b6118d9908461248d565b6118e490601f61240b565b92505f61098f6118f5856050612432565b6118ff9190612461565b90505f60506119108361098f612432565b61191a9190612461565b611924908661248d565b9050611931600b83612461565b945061193e85600c612432565b61194983600261240b565b611953919061248d565b9150848361196260318761248d565b61196d906064612432565b611977919061240b565b611981919061240b565b9a919950975095505050505050565b5f80807f7fffffffffffffffffffffffffffffff5d576e7357a4501ddfe92f46681b20a08411156119c957505f91506003905082611a4e565b604080515f808252602082018084528a905260ff891692820192909252606081018790526080810186905260019060a0016020604051602081039080840390855afa158015611a1a573d5f803e3d5ffd5b5050604051601f1901519150506001600160a01b038116611a4557505f925060019150829050611a4e565b92505f91508190505b9450945094915050565b828054828255905f5260205f20908101928215611a9c579160200282015b82811115611a9c5782518290611a8c9082612047565b5091602001919060010190611a76565b50611aa8929150611aac565b5090565b80821115611aa8575f611abf8282611ac8565b50600101611aac565b508054611ad490611fc1565b5f825580601f10611ae3575050565b601f0160209004905f5260205f20908101906114a191905b80821115611aa8575f8155600101611afb565b634e487b7160e01b5f52604160045260245ffd5b604051601f8201601f1916810167ffffffffffffffff81118282101715611b4b57611b4b611b0e565b604052919050565b5f82601f830112611b62575f80fd5b813567ffffffffffffffff811115611b7c57611b7c611b0e565b611b8f601f8201601f1916602001611b22565b818152846020838601011115611ba3575f80fd5b816020850160208301375f918101602001919091529392505050565b5f60208284031215611bcf575f80fd5b813567ffffffffffffffff811115611be5575f80fd5b611bf184828501611b53565b949350505050565b6001600160a01b03811681146114a1575f80fd5b5f60208284031215611c1d575f80fd5b8135611c2881611bf9565b9392505050565b5f5b83811015611c49578181015183820152602001611c31565b50505f910152565b5f8151808452611c68816020860160208601611c2f565b601f01601f19169290920160200192915050565b608081525f611c8e6080830187611c51565b60ff95861660208401529385166040830152509216606090920191909152919050565b5f8060408385031215611cc2575f80fd5b82359150602083013567ffffffffffffffff811115611cdf575f80fd5b611ceb85828601611b53565b9150509250929050565b5f6020808385031215611d06575f80fd5b823567ffffffffffffffff80821115611d1d575f80fd5b818501915085601f830112611d30575f80fd5b813581811115611d4257611d42611b0e565b8060051b611d51858201611b22565b9182528381018501918581019089841115611d6a575f80fd5b86860192505b83831015611da557823585811115611d87575f8081fd5b611d958b89838a0101611b53565b8352509186019190860190611d70565b9998505050505050505050565b5f602080830181845280855180835260408601915060408160051b87010192508387015f5b82811015611e0557603f19888603018452611df3858351611c51565b94509285019290850190600101611dd7565b5092979650505050505050565b602080825282518282018190525f9190848201906040850190845b81811015611e525783516001600160a01b031683529284019291840191600101611e2d565b50909695505050505050565b5f805f60608486031215611e70575f80fd5b8335611e7b81611bf9565b925060208401359150604084013567ffffffffffffffff811115611e9d575f80fd5b611ea986828701611b53565b9150509250925092565b5f8060408385031215611ec4575f80fd5b8235611ecf81611bf9565b9150602083013560ff81168114611ee4575f80fd5b809150509250929050565b608081525f611f016080830187611c51565b8560208401528460408401528281036060840152611f1f8185611c51565b979650505050505050565b5f8060408385031215611f3b575f80fd5b8235611f4681611bf9565b9150602083013567ffffffffffffffff811115611cdf575f80fd5b602081525f611c286020830184611c51565b5f60208284031215611f83575f80fd5b5035919050565b60208082526017908201527f5265676973746572656420636c69656e74206f6e6c7921000000000000000000604082015260600190565b600181811c90821680611fd557607f821691505b602082108103611ff357634e487b7160e01b5f52602260045260245ffd5b50919050565b601f821115612042575f81815260208120601f850160051c8101602086101561201f5750805b601f850160051c820191505b8181101561203e5782815560010161202b565b5050505b505050565b815167ffffffffffffffff81111561206157612061611b0e565b6120758161206f8454611fc1565b84611ff9565b602080601f8311600181146120a8575f84156120915750858301515b5f19600386901b1c1916600185901b17855561203e565b5f85815260208120601f198616915b828110156120d6578886015182559484019460019091019084016120b7565b50858210156120f357878501515f19600388901b60f8161c191681555b5050505050600190811b01905550565b81810361210e575050565b6121188254611fc1565b67ffffffffffffffff81111561213057612130611b0e565b61213e8161206f8454611fc1565b5f601f82116001811461216f575f83156121585750848201545b5f19600385901b1c1916600184901b1784556121d1565b5f85815260209020601f198416905f86815260209020845b838110156121a75782860154825560019586019590910190602001612187565b50858310156121c457818501545f19600388901b60f8161c191681555b50505060018360011b0184555b5050505050565b634e487b7160e01b5f52602160045260245ffd5b634e487b7160e01b5f52603260045260245ffd5b634e487b7160e01b5f52601160045260245ffd5b5f6001820161222557612225612200565b5060010190565b60208082526019908201527f4f6e6c792061636365737369626c652062792061646d696e2100000000000000604082015260600190565b5f60ff821660ff810361227857612278612200565b60010192915050565b5f60ff82168061229357612293612200565b5f190192915050565b5f81516122ad818560208601611c2f565b9290920192915050565b5f8086546122c481611fc1565b600182811680156122dc57600181146122f15761231d565b60ff198416875282151583028701945061231d565b8a5f526020805f205f5b858110156123145781548a8201529084019082016122fb565b50505082870194505b50602d60f81b8452885192506123398382860160208c01611c2f565b61237061236a61235d6123578487890101602d60f81b815260010190565b8b61229c565b602d60f81b815260010190565b8861229c565b9a9950505050505050505050565b6510db1a595b9d60d21b81525f825161239e816006850160208701611c2f565b9190910160060192915050565b634e487b7160e01b5f52601260045260245ffd5b5f826123cd576123cd6123ab565b500490565b8181038181111561159757611597612200565b5f826123f3576123f36123ab565b500690565b8082018082111561159757611597612200565b8082018281125f83128015821682158216171561242a5761242a612200565b505092915050565b8082025f8212600160ff1b8414161561244d5761244d612200565b818105831482151761159757611597612200565b5f8261246f5761246f6123ab565b600160ff1b82145f198414161561248857612488612200565b500590565b8181035f8312801583831316838312821617156124ac576124ac612200565b509291505056fea2646970667358221220ea57cc04863eff8b4e1d2295251e9c4e8685d1a422b0f59762fd2512a7b79e3c64736f6c63430008140033",
    "sourcePath": "c:/Users/yhwong77.CITYUMD/Desktop/IBCOL/HRChain/contracts/HRChain.sol",
    "compiler": {
        "name": "solc",
        "version": "0.8.20+commit.a1b79de6"
    },
    "functionHashes": {
        "Certified_List()": "b1e5b589",
        "Client_List()": "525cf3a0",
        "accRequest()": "0b4ace51",
        "add_Certified(address)": "844c52d5",
        "add_info(string[])": "427d2e42",
        "admin()": "f851a440",
        "client(address)": "0c332119",
        "generate_Doc(address,string)": "e1eed178",
        "make_payment(address)": "c493f2e2",
        "record_signs(address,bytes32,bytes)": "80d05142",
        "register_client(address)": "489e0cf1",
        "retrieve_signs(address,uint8)": "e03f5b16",
        "return_info(address)": "4b55f187",
        "set_username(string)": "09c1fffc",
        "startTime()": "78e97925",
        "timeNow()": "d95660be",
        "timestampToDateTime(uint256)": "ea1c1690",
        "verifyAcc(address)": "ea2d486f",
        "verifyDoc(bytes32,bytes)": "3099a269"
    },
    "gasEstimates": {
        "creation": {
            "codeDepositCost": "1889800",
            "executionCost": "infinite",
            "totalCost": "infinite"
        },
        "external": {
            "Certified_List()": "infinite",
            "Client_List()": "infinite",
            "accRequest()": "infinite",
            "add_Certified(address)": "infinite",
            "add_info(string[])": "infinite",
            "admin()": "2446",
            "client(address)": "infinite",
            "generate_Doc(address,string)": "infinite",
            "make_payment(address)": "infinite",
            "record_signs(address,bytes32,bytes)": "infinite",
            "register_client(address)": "infinite",
            "retrieve_signs(address,uint8)": "infinite",
            "return_info(address)": "infinite",
            "set_username(string)": "infinite",
            "startTime()": "2405",
            "timeNow()": "301",
            "timestampToDateTime(uint256)": "infinite",
            "verifyAcc(address)": "infinite",
            "verifyDoc(bytes32,bytes)": "infinite"
        },
        "internal": {
            "generate_ClientID()": "infinite",
            "isExistingClient(address)": "infinite",
            "uint2str(uint256)": "infinite"
        }
    }
}